:1000000022C046C07DC444C043C030C441C040C0CB
:100010003FC03EC03DC03CC03BC03AC039C00000FC
:10002000000036000000000037000000000038002B
:100030000202020202020102040810200102000072
:1000400004000307800711241FBECFE5D2E0DEBF06
:10005000CDBF21E0A2E8B0E001C01D92AA31B207F5
:10006000E1F710E0A0E6B0E0E0E6F4E102C00590C0
:100070000D92A238B107D9F710E0C2E2D0E003C078
:100080002197FE01E7D7C132D107D1F7B3D4DCC93C
:10009000B7CFE0910F01EF5FE0930F01F0E0E35085
:1000A000FF4F80810895E091DC00E13150F4EF5F73
:1000B000E093DC00F0E0E350FF4F808381E090E0CC
:1000C000089580E090E00895813019F48AB58F7723
:1000D00004C0823021F48AB58F7D8ABD08958330B3
:1000E00021F480B78F7D80BF0895843019F48CB5DA
:1000F0008F7D8CBD08951F93CF93DF93162F87FFBD
:1001000011C08F7741F0813041F0823041F083306F
:1001100041F08FEF07C085E005C082E003C084E0B6
:1001200001C083E0282F30E0F901E45CFF4F8491A7
:10013000F901EA5CFF4FD491F901E05DFF4FC491F2
:10014000CC23D1F08111C0DFEC2FF0E0EE0FFF1FC8
:10015000E65DFF4FA591B491111108C09FB7F894C7
:100160008C91D095D823DC939FBF06C08FB7F894AD
:10017000EC91DE2BDC938FBFDF91CF911F9108951F
:10018000CF93DF9387FF11C08F7741F0813041F02B
:10019000823041F0833041F08FEF07C085E005C029
:1001A00082E003C084E001C083E090E0FC01EA5CEF
:1001B000FF4F2491FC01E05DFF4F8491882361F1A2
:1001C00090E0880F991FFC01EC5DFF4FC591D49121
:1001D000FC01E65DFF4FA591B491611109C09FB785
:1001E000F8948881209582238883EC912E230BC07C
:1001F000623061F49FB7F8948881322F3095832361
:100200008883EC912E2B2C939FBF06C08FB7F89458
:10021000E8812E2B28838FBFDF91CF9108953FB7C0
:10022000F8948091D8009091D900A091DA00B09113
:10023000DB0022B708B601FE05C02F3F19F001967A
:10024000A11DB11D3FBFBA2FA92F982F8827820F5C
:10025000911DA11DB11DBC01CD0143E0660F771FAB
:10026000881F991F4A95D1F70895CF92DF92EF9298
:10027000FF92CF93DF936B017C01D1DFEB01C114BF
:10028000D104E104F10499F0CADF6C1B7D0B683ED8
:100290007340A8F3C114D104E104F10481F381E0B7
:1002A000C81AD108E108F108C851DC4FEDCFDF9141
:1002B000CF91FF90EF90DF90CF900895CF92DF9293
:1002C000EF92FF920F931F93CF93DF936C01EB019B
:1002D0007B01E40EF51E00E010E0CE15DF0561F0B5
:1002E0006991D601ED91FC910190F081E02DC6015C
:1002F0000995080F191FF1CFC801DF91CF911F9108
:100300000F91FF90EF90DF90CF9008952091C4005F
:100310003091C5002817390771F49091C20080917F
:10032000C300981741F0E091C200F0E0EE57FF4F94
:10033000808190E008958FEF9FEF089508951F93B7
:10034000CF93DF93DC015C968D919C915D97009734
:1003500039F421E030E013963C932E9312973BC082
:100360005196ED91FC91529750962C915097322FC7
:1003700030951FB75E964C915E97742F727041FD59
:100380006095F8944081772311F0422B01C04323FC
:100390004083EC012197F1F748E0508160FF02C0F3
:1003A000522B01C053235083EC012197F1F766953E
:1003B000415099F78081772319F08323808302C00D
:1003C000282B20831FBF5C968D919C915D97019790
:1003D000F1F781E090E0DF91CF911F910895CF93E5
:1003E000DF936DE08EED90E0AADFEC016AE08EED28
:1003F00090E0A5DF8C0F9D1FDF91CF9108950F93A3
:100400001F93CF93DF93C0E0D0E000E010E0809135
:10041000140190911501C817D90798F48091100123
:1004200090911101009729F0FC01EC0FFD1F6081F4
:1004300001C060E08EED90E082DF080F191F219669
:10044000E6CFC801DF91CF911F910F9108952091C0
:10045000C4003091C5002817390769F48091C300A2
:100460002091C20090E0805C9F4F821B910960E464
:1004700070E0A7D5089580E090E008952091C40031
:100480003091C50028173907B9F49091C2008091C6
:10049000C300981789F0E091C200F0E0EE57FF4FDB
:1004A00080812091C20030E02F5F3F4F2F733327B0
:1004B0002093C20090E008958FEF9FEF08950F936F
:1004C0001F93CF93DF938C01EB01809110019091EA
:1004D0001101009739F02091120130911301261774
:1004E000370758F5BE016F5F7F4FDBD6009789F065
:1004F0009093110180931001D0931301C0931201C6
:100500002091140130911501232BB9F4FC011082C4
:1005100014C08091100190911101009709F038D614
:1005200010921101109210011092150110921401F5
:1005300010921301109212010AC0D0931501C093BA
:100540001401B801809110019091110176D780E1DA
:1005500091E0DF91CF911F910F9108958F929F921B
:10056000AF92BF92EF92FF920F931F93CF93DF93BF
:10057000CDB7DEB7A1970FB6F894DEBF0FBECDBFE3
:10058000162F042F19A2423008F40AE07E0121E25E
:10059000E20EF11C802E912CA12CB12C612FA50113
:1005A000940122D5802F622F03D5181B81E0E81A11
:1005B000F1081A3014F4105D01C0195CF7011083C2
:1005C000122F732FCA01232B242B252B39F70190CF
:1005D0000020E9F73197AF014E195F09B7018EEDA1
:1005E00090E06CDEA1960FB6F894DEBF0FBECDBFD3
:1005F000DF91CF911F910F91FF90EF90BF90AF903F
:100600009F908F900895009751F0FC010190002079
:10061000E9F73197BF01681B790B51DF13C0809157
:10062000100190911101009709F0B2D510921101BB
:1006300010921001109215011092140110921301E2
:100640001092120180E191E0089541E050E068E7E6
:1006500070E08EED90E032CECF92DF92EF92FF927B
:10066000CF93DF936C01990FEE08FF08F7FE0EC0E1
:100670006DE28EED90E063DEEC01F094E094D094B6
:10068000C094C11CD11CE11CF11C02C0C0E0D0E030
:100690004AE0C701B60162DF8C0F9D1FDF91CF9149
:1006A000FF90EF90DF90CF900895BAD6C098C29A8D
:1006B000B29BFECF8AE08A95F1F700C0C09A8DE028
:1006C0008A95F1F700009EB1892F807295FD04C0D4
:1006D00094E09093DD00089581E00895C29AC29B52
:1006E000FECF8DE08A95F1F70000C0988AE08A95E8
:1006F000F1F700C0C298C09A779905C083E0809353
:10070000DD0080E0089581E008958EB98BE29DE0E0
:100710009A95F1F700008DB9B29BFECF9AE09A95B9
:10072000F1F700C08DB9769BF2CF8DE08A95F1F795
:1007300000008FB19FEF9FB9B89A0895CF92DF92D2
:10074000EF92FF920F931F93CF93DF93082F809127
:10075000DD0081608093DD009091FD0090FD03C07D
:1007600082608093DD00BADF882309F451C0102F26
:10077000CDEFD0E0DD24DA94CC24C3948091DD0069
:1007800083709E012F5F3F4F7901882369F1C298E2
:1007900088818FB980EFB9DFB8988EEFB6DF90917E
:1007A000DD0080FF0BC0892F817090FF05C081E0C4
:1007B0008093DD0080E02CC092E00FC0892F85700F
:1007C000843071F48091FD0081608093FD00C092BF
:1007D000DD0084DF811115C09AE09093DD0018C020
:1007E0009E7F9093DD000BC0B89880EF8EDF8883EA
:1007F000113011F4DFB801C01FB88EEF86DFE701BA
:1008000003C0102FCDEFD0E0115009F0B7CF81E039
:10081000DF91CF911F910F91FF90EF90DF90CF90DC
:10082000089510920F0191E89093FD001092DD0061
:100830008F5F84DF882319F039DF811103C0809135
:10084000DD00089580E008958091DC001092DD00C5
:100850008F5F74DF1092DC00882319F027DF81118D
:1008600003C08091DD00089580E008951F920F92EB
:100870000FB60F9211242F933F938F939F93AF93B3
:10088000BF938091D4009091D500A091D600B091F3
:10089000D7003091D30026E0230F2D3730F029E820
:1008A000230F0396A11DB11D03C00296A11DB11D0A
:1008B0002093D3008093D4009093D500A093D600CA
:1008C000B093D7008091D8009091D900A091DA0020
:1008D000B091DB000196A11DB11D8093D8009093CB
:1008E000D900A093DA00B093DB00BF91AF919F9144
:1008F0008F913F912F910F900FBE0F901F901895E1
:100900001F920F920FB60F9211242F933F934F9384
:100910005F936F937F938F939F93AF93BF93EF9367
:10092000FF93E091C400F091C500309709F451C0E5
:10093000968DA685B785858591FF04C09C918923F6
:1009400029F447C09C91892309F043C0A389B48945
:100950009C918589809589238C93868997890197B5
:10096000F1F7608D718DA685B785558538E020E05B
:10097000CB010197F1F7822F90E095958795282F6D
:100980004C91452309F02068315091F7868D81FD07
:1009900020958091C30090E001968F739927309144
:1009A000C200381749F0A091C300B0E0AE57BF4F66
:1009B0002C938093C30003C0868D8160868F828DC7
:1009C000938D0197F1F7A389B4899C918589892B2F
:1009D0008C93FF91EF91BF91AF919F918F917F91F8
:1009E0006F915F914F913F912F910F900FBE0F909C
:1009F0001F90189581B781BF8AB582608ABD8AB57C
:100A000081608ABD83B7887F836083BF789489B70C
:100A1000826089BF80B7807F80BF80B7806880BFD9
:100A200080B7806480BF8CB580648CBD8FEF8DBD36
:100A300080B7876080BF86B18877866886B9379A25
:100A400061E081E09DDB1092F9001092F8001092B5
:100A5000F7001092F6001092F5001092F4008DEC61
:100A600090E09093FB008093FA003091EA003630DA
:100A700020F545E550E05093F5004093F4004BEC31
:100A800050E05093F7004093F60040E950E0509357
:100A9000F9004093F8002BB720622BBF45E350E0EC
:100AA0005093F2004093F10021E001C0220F3A95EB
:100AB000EAF72093F3000197F1F78091F800909105
:100AC000F900892B49F1E091C400F091C50040E0A4
:100AD000EE3DF40709F1309739F0A389B4899C9170
:100AE0008589809589238C938091FC008E7F8093EB
:100AF000FC001092C3001092C2008EED90E0909323
:100B0000C5008093C400E091F100F091F200908163
:100B10008091F300892B808360E083E031DB64E621
:100B200070E080E090E0A1DB81E080936100C09AFA
:100B3000C29ABA9AB89A8FEF8FB98AE28DB980EFCC
:100B40008EB91092DC00C0E8C093FD0080E0ABDA03
:100B50008FE1A9DA8FEFA7DA77DE61E070E080E05D
:100B600090E083DB1092DC00C093FD0085E09BDA0F
:100B700080E199DA80E097DA67DE61E070E080E09A
:100B800090E073DB1092DC00C093FD0085E08BDA0F
:100B90005BDE61E070E080E090E067DB81E041DEF9
:100BA00078DA682F70E080E090E04AE0D7DC17DC6C
:100BB00068E873E180E090E058DB61E081E09BDA77
:100BC00068E97AE380E090E050DB0FE310E069E34E
:100BD000E62E60E0F62E73E3C72E70E0D72EE0E835
:100BE0009E2E77247394FAEF8F2EF8018491F701EB
:100BF000C491F601D491DD2399F0811165DAED2FCE
:100C0000F0E0EE0FFF1FE25EFF4FA591B4918C91D3
:100C1000C82331E020E009F430E0832F922F02C096
:100C200080E090E09C01F1E02F272093D2003091EA
:100C3000D100321739F0892B29F060E177E280E0AA
:100C400090E013DB1092DC009092FD0084E02BDA40
:100C5000FBDD61E070E080E090E007DB82E0E1DD59
:100C600018DAC82F16DA2C2F30E0322F2227282B43
:100C70003093D0002093CF001092DC009092FD00C2
:100C800082E011DAE1DD61E070E080E090E0EDDA31
:100C900082E0C7DDFED9C82FFCD9D0E0DC2FCC27FD
:100CA000C82B33E0D695C7953A95E1F7CC0FDD1FF9
:100CB000CC0FDD1FD093CE00C093CD002091CB0090
:100CC0003091CC0090916100CC354BE2D40788F490
:100CD0002D355BE2350710F01092CA00992349F0D8
:100CE0008091D200811105C08091CA008F5F8093EE
:100CF000CA008091D100811105C08091D20081117C
:100D00001092C900911109C08091D200882329F066
:100D10008091C9008F5F8093C900A090CF00B090F0
:100D2000D0008091C7009091C800F501E81BF90B35
:100D3000CF01F7FF03C09195819591098536910503
:100D400014F01092C600C217D30741F0CE01821BE7
:100D5000930B8536910510F01092C6008091C90062
:100D60008B3058F0709261008092C60080926000D3
:100D70001092C90061E081E0BED98091D2008093D9
:100D8000D100D093CC00C093CB00B092C800A09209
:100D9000C7008091C600811125C08091600081113B
:100DA00021C0C50159DC51DC8091CD009091CE006D
:100DB00053DC4BDC8091D200811103C08DE790E0C1
:100DC00002C08AE790E01FDC1ADB3FDC8091610003
:100DD000811103C08DE790E002C08AE790E013DC48
:100DE0000EDBFDDA8091C60081508093C6008091B1
:100DF0006000811181508093600068E873E180E0B9
:100E000090E033DAF2CE1092E1001092E00088EE2A
:100E100093E0A0E0B0E08093E2009093E300A09321
:100E2000E400B093E5008CE690E09093DF008093BF
:100E3000DE001092F5001092F4001092F70010926C
:100E4000F6001092F9001092F8001092FB00109238
:100E5000FA006091FC006E7F6D7F6093FC006695E8
:100E6000617081E0682784E046D961E084E088D938
:100E7000EAE3F0E0E491E093EE00E4E3F0E0E491F3
:100E8000F0E0EE0FFF1FE65DFF4F85919491909388
:100E9000F0008093EF0060E083E072D98091FC0065
:100EA00081FD03C061E083E026D983E08093EA00FE
:100EB000E9E3F0E0E491E093EB00E3E3F0E0E491B8
:100EC000F0E0EE0FFF1FE25EFF4F8591949190934B
:100ED000ED008093EC008091D2008093D1001092BD
:100EE0001101109210011092130110921201109230
:100EF00015011092140160E070E089E790E0DFCA0C
:100F0000809110019091110143D18CE690E0909373
:100F1000DF008093DE008091C4009091C5008E5D5B
:100F2000904071F4E091F100F091F2009081809195
:100F3000F3008095892380831092C5001092C4002D
:100F400008952F923F924F925F926F927F928F926D
:100F50009F92AF92BF92CF92DF92EF92FF920F9348
:100F60001F93CF93DF93CDB7DEB7CA1BDB0B0FB652
:100F7000F894DEBF0FBECDBF09942A88398848880F
:100F80005F846E847D848C849B84AA84B984C884A5
:100F9000DF80EE80FD800C811B81AA81B981CE0F9C
:100FA000D11D0FB6F894DEBF0FBECDBFED01089581
:100FB000002480FD060E660F11F08695D1F7802D76
:100FC000089597FB072E16F4009406D077FD08D0FD
:100FD0002DD007FC05D03EF4909581959F4F089544
:100FE000709561957F4F0895A1E21A2EAA1BBB1B35
:100FF000FD010DC0AA1FBB1FEE1FFF1FA217B307E5
:10100000E407F50720F0A21BB30BE40BF50B661FFA
:10101000771F881F991F1A9469F7609570958095BE
:1010200090959B01AC01BD01CF010895AA1BBB1B8C
:1010300051E107C0AA1FBB1FA617B70710F0A61BD8
:10104000B70B881F991F5A95A9F780959095BC01F9
:10105000CD010895EE0FFF1F0590F491E02D099446
:101060000F931F93CF93DF938230910510F482E0AA
:1010700090E0E0911801F091190120E030E0A0E04B
:10108000B0E0309719F140815181028113814817F6
:101090005907C8F08417950769F4109731F0129634
:1010A0000C93129713961C9327C00093180110936A
:1010B000190122C02115310519F04217530718F400
:1010C0009A01BD01EF01DF01F801DBCF21153105E8
:1010D000F9F0281B390B2430310580F48A819B817B
:1010E0006115710521F0FB019383828304C0909305
:1010F000190180931801FE01329644C0FE01E20FEF
:10110000F31F8193919322503109398328833AC088
:101110002091160130911701232B41F42091640096
:1011200030916500309317012093160120916200E1
:10113000309163002115310541F42DB73EB7409140
:10114000660050916700241B350BE0911601F09169
:101150001701E217F307A0F42E1B3F0B28173907DE
:1011600078F0AC014E5F5F4F2417350748F04E0F03
:101170005F1F50931701409316018193919302C012
:10118000E0E0F0E0CF01DF91CF911F910F91089542
:10119000CF93DF93009709F481C0FC01329713824B
:1011A0001282A0911801B0911901109781F4208149
:1011B0003181820F931F209116013091170128175A
:1011C000390751F5F0931701E093160167C0ED015F
:1011D00020E030E0CE17DF0740F44A815B819E01BA
:1011E00041155105F1F0EA01F5CFD383C283408167
:1011F0005181840F951FC817D90759F488819981A7
:10120000840F951F0296918380838A819B819383AB
:1012100082832115310529F4F0931901E093180117
:101220003DC0E901FB83EA8349915991C40FD51F61
:10123000EC17FD0761F480819181840F951F029660
:10124000E90199838883828193819B838A83E0E08B
:10125000F0E012968D919C911397009719F0FD0183
:10126000DC01F7CF8D919C9111979D012E5F3F4F2F
:10127000820F931F2091160130911701281739070B
:1012800069F4309729F4109219011092180102C0E4
:1012900013821282B0931701A0931601DF91CF91B0
:1012A0000895A0E0B0E0E6E5F9E04FCEEC0100974C
:1012B00019F4CB01D5DEB0C0FC01E60FF71F9C018D
:1012C00022503109E217F30708F4A4C0D9010D91A7
:1012D0001C91119706171707A8F00530110508F49F
:1012E00097C0C80104978617970708F491C0025069
:1012F0001109061B170B019311936D937C93CF017A
:1013000047DF86C05B01A01AB10A4C01800E911E16
:10131000A0911801B0911901612C712CE12CF12CD4
:10132000109709F446C08D919C911197A815B905A5
:10133000B1F56C0142E0C40ED11CCA14DB0478F193
:101340004C018A189B08640142E0C40ED11C12961D
:10135000BC9012971396AC91B5E0CB16D10440F037
:10136000B282A38391828082D9016D937C9309C05C
:101370000E5F1F4F800F911FF90191838083EB2D2A
:10138000FA2FE114F10431F0D7011396FC93EE9398
:1013900012973EC0F0931901E093180139C0681606
:1013A000790608F43C017D0112960D90BC91A02DA8
:1013B000B7CF809116019091170188169906E1F434
:1013C00066167706C8F480916200909163000097DA
:1013D00041F48DB79EB74091660050916700841B21
:1013E000950BE817F907B0F4F0931701E093160195
:1013F000F901718360830CC0CB0132DE7C01009760
:1014000049F0A801BE0110D0CE01C2DEC70104C060
:10141000CE0102C080E090E0CDB7DEB7EEE0B1CD06
:1014200081E090E0F89410C0FB01DC0102C0019063
:101430000D9241505040D8F70895FB01DC01019016
:101440000D920020E1F7089510E0C2E2D0E003C061
:10145000FE0100DE2196C332D107D1F7F894FFCF09
:10146000010100001A012000000000009F015E0140
:1014700027023E0286019E013B004F4E004F46462A
:0214800000006A
:00000001FF
