:1000000028C04CC00BC44AC049C0BEC347C046C08C
:1000100045C044C043C042C041C040C03FC00000D2
:10002000000037000000000038000000000036002B
:10003000020202020202020202020102040810206D
:100040002004100801020000040000000000A506C2
:10005000220711241FBECFE5D2E0DEBFCDBF21E0D5
:10006000A6E8B0E001C01D92AE31B207E1F710E0A2
:10007000A0E6B0E0E4E8F3E102C005900D92A638F6
:10008000B107D9F710E0C8E2D0E003C02197FE0124
:100090007CD7C732D107D1F739D468C9B1CFE09145
:1000A0001301EF5FE0931301F0E0EF5FFE4F8081FB
:1000B0000895E091E000E13150F4EF5FE093E0005B
:1000C000F0E0EF5FFE4F808381E090E0089590E0E4
:1000D00080E00895AF92BF92CF92DF92EF92FF92AD
:1000E0000F931F93CF93DF936C017B018B01040F60
:1000F000151FEB015E01AE18BF08C017D10759F0FC
:100100006991D601ED91FC910190F081E02DC6013D
:100110000995892B79F7C501DF91CF911F910F9137
:10012000FF90EF90DF90CF90BF90AF900895823016
:1001300089F018F4813051F00895833019F084303B
:1001400009F008958CB58F7D8CBD08958AB58F77A1
:100150008ABD08958AB58F7DFBCF1F93CF93DF9320
:10016000282F30E0F901EC5BFF4F8491F901E65C48
:10017000FF4FD491F901E05DFF4FC491CC23A1F072
:10018000162F8111D4DFEC2FF0E0EE0FFF1FEC5D96
:10019000FF4FA591B4918FB7F894EC91111108C05D
:1001A000D095DE23DC938FBFDF91CF911F9108950F
:1001B000DE2BF8CFCF93DF9390E0FC01E65CFF4F9E
:1001C0002491805D9F4FFC0184918823D1F090E0C1
:1001D000880F991FFC01E25EFF4FA591B491FC01CD
:1001E000EC5DFF4FC591D49161110EC09FB7F8949B
:1001F0008C91E22FE0958E238C932881E223E88373
:100200009FBFDF91CF9108958FB7F894EC91E22BC7
:10021000EC938FBFF6CF3FB7F8948091CB009091CD
:10022000CC00A091CD00B091CE0022B708B601FE5F
:1002300005C02F3F19F00196A11DB11D3FBFBA2F78
:10024000A92F982F8827BC01CD01620F711D811D38
:10025000911D43E0660F771F881F991F4A95D1F7BC
:1002600008958F929F92AF92BF92CF92DF92EF92BA
:10027000FF924B015C01CFDF6B017C01CCDF6C197D
:100280007D098E099F09683E734081059105B0F391
:1002900021E0821A9108A108B10888EEC80E83E017
:1002A000D81EE11CF11C81149104A104B10431F7A2
:1002B000FF90EF90DF90CF90BF90AF909F908F9086
:1002C00008952091D1003091D2002817390771F498
:1002D0009091CF008091D000981741F0E091CF002D
:1002E000F0E0EA57FF4F808190E008958FEF9FEF95
:1002F00008950895EF92FF920F931F93CF93DF938A
:10030000DC015C96ED90FC905D97E114F10479F4CA
:1003100081E090E013969C938E93129790E080E09A
:10032000DF91CF911F910F91FF90EF90089551961B
:10033000ED91FC91529750968C915097982F9095F3
:100340000FB75E962C915E97122F127021FD60956B
:10035000F8942081112319F1282B2083E70121979C
:10036000F1F728E0462F50E0308160FF1AC0382BAB
:100370003083E7012197F1F7BA0175956795215010
:1003800089F7112381F08081892380830FBF5C96D8
:100390008D919C910197F1F781E090E0C1CF2923E5
:1003A000DCCF3923E5CF9081892BEFCF2091D1008D
:1003B0003091D2002817390769F48091D00020913C
:1003C000CF0090E0805C9F4F821B910960E470E059
:1003D00093D5089590E080E008952091D100309168
:1003E000D20028173907B9F49091CF008091D0003E
:1003F000981789F0E091CF00F0E0EA57FF4F808135
:100400002091CF0030E02F5F3F4F2F733327209391
:10041000CF0090E008958FEF9FEF089590E080E087
:1004200008950F931F93CF93DF938C01EB0180917D
:10043000140190911501009739F020911601309127
:10044000170126173707B0F4BE016F5F7F4FC8D67C
:100450000097D9F09093150180931401D093170160
:10046000C09316012091180130911901232B11F42A
:10047000FC011082D0931901C0931801B80180913A
:100480001401909115016BD713C0809114019091C4
:100490001501009709F01BD6109215011092140156
:1004A0001092190110921801109217011092160162
:1004B00084E191E0DF91CF911F910F910895FC01AC
:1004C00001900020E9F73197AF01481B590BBC019F
:1004D00082EE90E0FFCD8F929F92AF92BF920F93EA
:1004E0001F93CF93DF93CDB7DEB7A1970FB6F894E4
:1004F000DEBF0FBECDBF19A2423008F44AE08E0124
:100500000F5D1F4F842E912CB12CA12CA5019401BD
:1005100006D5E62FB901CA01EA30ECF4E05DD80156
:10052000EE938D01232B242B252B81F790E080E087
:10053000109711F0CD01C3DFA1960FB6F894DEBF7E
:100540000FBECDBFDF91CF911F910F91BF90AF90A4
:100550009F908F900895E95CE2CFFC01019000200C
:10056000E9F73197BF01681B790B5BDF84E191E00C
:100570000895CF92DF92EF92FF92CF93DF936C01B9
:10058000990FEE08FF08F7FE17C06DE282EE90E0CB
:10059000B1DEEC0166277727CB016C197D098E0946
:1005A0009F094AE098DF8C0F9D1FDF91CF91FF904C
:1005B000EF90DF90CF9008954AE0C701B601DF9138
:1005C000CF91FF90EF90DF90CF9085CFC098C29AE7
:1005D000B29BFECF8AE08A95F1F700C0C09A8DE009
:1005E0008A95F1F700009EB1892F807295FD04C0B5
:1005F00094E09093E100089581E00895C29AC29B2F
:10060000FECF8DE08A95F1F70000C0988AE08A95C8
:10061000F1F700C0C298C09A779905C083E0809333
:10062000E10080E0089581E008958EB98BE29DE0BD
:100630009A95F1F700008DB9B29BFECF9AE09A959A
:10064000F1F700C08DB9769BF2CF8DE08A95F1F776
:1006500000008FB19FEF9FB9B89A0895CF92DF92B3
:10066000EF92FF920F931F93CF93DF93082F809108
:10067000E10081608093E1009091010190FD03C051
:1006800082608093E100BADF882319F1102FC1E066
:10069000D1E0DD24DA94CC24C3947E018FEFE81AF4
:1006A000F80A8091E1008370D1F1C29888818FB9F6
:1006B00080EFBBDFB8988EEFB8DF9091E10080FF4C
:1006C00015C0892F817090FF0DC081E08093E100FB
:1006D00080E0DF91CF911F910F91FF90EF90DF901D
:1006E000CF90089592E09093E100F3CF892F857029
:1006F000843061F480910101816080930101C09296
:10070000E1007CDF811117C09AE0EDCF9E7F9093CE
:10071000E100E701115009F0C0CF81E0DACFB898CD
:1007200080EF83DF8883113021F4DFB88EEF7DDF27
:10073000F0CF1FB8FBCF102FC1E0D1E0EBCF10926C
:10074000130191E8909301011092E1008F5F86DF21
:10075000882319F03BDF811103C08091E1000895E7
:1007600080E008958091E0001092E1008F5F76DFD5
:100770001092E000882319F029DF811103C08091D5
:10078000E100089580E008951F920F920FB60F9236
:1007900011242F933F938F939F93AF93BF93809197
:1007A000C7009091C800A091C900B091CA003091D3
:1007B000C60026E0230F2D3758F50296A11DB11D66
:1007C0002093C6008093C7009093C800A093C900EF
:1007D000B093CA008091CB009091CC00A091CD0045
:1007E000B091CE000196A11DB11D8093CB009093D6
:1007F000CC00A093CD00B093CE00BF91AF919F915C
:100800008F913F912F910F900FBE0F901F901895D1
:1008100029E8230F0396A11DB11DD2CF1F920F927D
:100820000FB60F9211242F933F934F935F936F93C3
:100830007F938F939F93AF93BF93EF93FF93E09139
:10084000D100F091D200309749F0A685B785858513
:10085000968D91FF14C09C918923A1F4FF91EF9193
:10086000BF91AF919F918F917F916F915F914F91C8
:100870003F912F910F900FBE0F901F9018959C9154
:10088000892361F7A389B4899C91858980958923FF
:100890008C93868997890197F1F7608D718DA68574
:1008A000B785558538E020E0CB010197F1F7822F1D
:1008B00090E095958795282F4C91452309F0206865
:1008C000315091F7868D81FD20958091D00090E088
:1008D00001968F7399273091CF00381799F0A09126
:1008E000D000B0E0AA57BF4F2C938093D000828DE8
:1008F000938D0197F1F7A389B4898C919589892B00
:100900008C93ACCF868D8160868FF1CF78948AB539
:1009100082608ABD8AB581608ABD83B7826083BFE9
:1009200083B7816083BF89B7826089BF80B78260E7
:1009300080BF80B7816080BF329A319A3098379AF1
:100940008CB580648CBD61E081E034DC1092FD00E8
:100950001092FC001092FB001092FA001092F90025
:100960001092F8008DEC90E09093FF008093FE00D1
:100970003091EE00353020F545E550E05093F90018
:100980004093F8004BEC50E05093FB004093FA008A
:1009900040E950E05093FD004093FC002BB72062EB
:1009A0002BBF45E350E05093F6004093F50021E063
:1009B00001C0220F3A95EAF72093F7000197F1F76B
:1009C0008091FC009091FD00892B49F1E091D100CC
:1009D000F091D20020E0E23EF20709F1309739F0C1
:1009E000A389B4899C918589809589238C93809172
:1009F00000018E7F809300011092D0001092CF00F2
:100A000082EE90E09093D2008093D100E091F500C7
:100A1000F091F60080819091F700892B808360E04F
:100A200083E0C8DB64E670E080E090E01ADC61E01F
:100A300081E093DB81E080936100C09AC29ABA9A08
:100A4000B89A8FEF8FB98AE28DB980EF8EB9109284
:100A5000E000C0E8C093010180E02BDB8FE129DBDF
:100A60008FEF27DB7FDE61E070E080E090E0F9DB74
:100A70001092E000C093010185E01BDB80E119DBEF
:100A800080E017DB6FDE61E070E080E090E0E9DBA2
:100A90001092E000C093010185E00BDB63DE61E0B2
:100AA00070E080E090E0DDDB81E049DEF8DA682F7D
:100AB00070E090E080E04AE00EDD81E890E0FFDC4D
:100AC00047E4642E40E0742E5DE3C52E50E0D52E41
:100AD00063E3A62E60E0B62E70E0872E70E0972EBE
:100AE000EAEF4E2E30E8332E1092E00030920101F2
:100AF00084E0DFDA37DE61E070E080E090E0B1DBD7
:100B000082E01DDECCDAC82FCADA9C2F9093DF007A
:100B10008093DE001092E0003092010182E0C9DA99
:100B200021DE61E070E080E090E09BDB82E007DEA8
:100B3000B6DAC82FB4DADC2FC82F93E0D695C79564
:100B40009A95E1F7CC0FDD1FCC0FDD1FD093DD00B0
:100B5000C093DC00F3018491F6011491F501049136
:100B6000002309F4E9C08111E2DAE02FF0E0EE0F92
:100B7000FF1FE65DFF4FA591B4918C91182331E0E2
:100B800020E009F430E0832F922F9C01F1E02F2721
:100B9000422F4170542E4093DB00E090D900F0903A
:100BA000DA000091DE001091DF009701201B310B6D
:100BB0002D3D354034F020916100222311F0892B26
:100BC00021F48091D8008B3038F01092610010929F
:100BD000D80060E081E0C1DA309161008091D600F8
:100BE0009091D700CC35FBE2DF0778F48D352BE20E
:100BF000920710F01092D800332339F0511005C03D
:100C00002091D8002F5F2093D8002091D50021118A
:100C100003C051101092D400311107C0552029F0A3
:100C20002091D4002F5F2093D40098012E193F0902
:100C300037FF03C03195219531092536310514F070
:100C40001092D300C817D90741F0FE01E81BF90B39
:100C5000E536F10510F01092D3008091D4008B306E
:100C600058F081E0809361004092D3004092600090
:100C70001092D40061E071DA5092D500D093D70081
:100C8000C093D6001093DA000093D9008091D3006E
:100C900081113CC080916000811138C0C80169DCBD
:100CA00084E890E00CDC8091DC009091DD0061DC58
:100CB00084E890E004DC8091DB00882309F43FC0E5
:100CC0008AE790E04ADC4091180150911901609147
:100CD00014017091150182EE90E0FCD984E890E057
:100CE000EEDB80916100882369F18AE790E035DCD2
:100CF00040911801509119016091140170911501F2
:100D000082EE90E0E7D981E890E0D9DB8091D300D2
:100D100081508093D3008091600081118150809335
:100D2000600068EB7BE080E090E09BDA8114910446
:100D300009F4DACE65D9D6CE90E080E026CF8DE7F3
:100D400090E0C0CF8DE790E0D2CF1092E5001092F6
:100D5000E40088EE93E0A0E0B0E08093E60090939A
:100D6000E700A093E800B093E9008CE690E0909350
:100D7000E3008093E2001092F9001092F8001092C4
:100D8000FB001092FA001092FD001092FC001092ED
:100D9000FF001092FE00609100016E7F6D7F6093F6
:100DA00000016695617081E0682784E0D6D961E032
:100DB00084E000DAEEE3F0E0E491E093F200E4E3B3
:100DC000F0E0E491F0E0EE0FFF1FEC5DFF4F859146
:100DD00094919093F4008093F30060E083E0EAD96B
:100DE0008091000181FD03C061E083E0B6D983E01A
:100DF0008093EE00EDE3F0E0E491E093EF00E3E3B5
:100E0000F0E0E491F0E0EE0FFF1FE65DFF4F85910B
:100E100094919093F1008093F0008091DB00809397
:100E2000D500109215011092140110921701109222
:100E30001601109219011092180170E060E083E829
:100E400090E0EFCA8091140190911501009709F08C
:100E50003ED18CE690E09093E3008093E200809195
:100E6000D1009091D200825E904071F4E091F50043
:100E7000F091F60090818091F7008095892380831E
:100E80001092D2001092D10008952F923F924F926B
:100E90005F926F927F928F929F92AF92BF92CF920A
:100EA000DF92EF92FF920F931F93CF93DF93CDB713
:100EB000DEB7CA1BDB0B0FB6F894DEBF0FBECDBF8B
:100EC00009942A88398848885F846E847D848C845C
:100ED0009B84AA84B984C884DF80EE80FD800C8165
:100EE0001B81AA81B981CE0FD11D0FB6F894DEBF48
:100EF0000FBECDBFED01089597FB072E16F40094A9
:100F000006D077FD08D02DD007FC05D03EF4909593
:100F100081959F4F0895709561957F4F0895A1E247
:100F20001A2EAA1BBB1BFD010DC0AA1FBB1FEE1F63
:100F3000FF1FA217B307E407F50720F0A21BB30BAE
:100F4000E40BF50B661F771F881F991F1A9469F72A
:100F500060957095809590959B01AC01BD01CF0186
:100F60000895AA1BBB1B51E107C0AA1FBB1FA617F0
:100F7000B70710F0A61BB70B881F991F5A95A9F742
:100F800080959095BC01CD010895EE0FFF1F05904F
:100F9000F491E02D09940F931F93CF93DF93823048
:100FA000910510F482E090E0E0911C01F0911D01A8
:100FB00030E020E0B0E0A0E0309799F42115310551
:100FC00009F44AC0281B390B24303105D8F58A8131
:100FD0009B816115710589F1FB0193838283FE0179
:100FE00011C0408151810281138148175907E0F0F7
:100FF0004817590799F4109761F012960C931297BD
:1010000013961C933296CF01DF91CF911F910F91D0
:10101000089500931C0110931D01F4CF2115310593
:1010200051F04217530738F0A901DB019A01BD01C5
:10103000DF01F801C1CFEF01F9CF90931D0180933B
:101040001C01CDCFFE01E20FF31F8193919322503B
:10105000310939832883D7CF20911A0130911B01A0
:10106000232B41F4209164003091650030931B01E3
:1010700020931A01209162003091630021153105FF
:1010800041F42DB73EB74091660050916700241B94
:10109000350BE0911A01F0911B01E217F307A0F460
:1010A0002E1B3F0B2817390778F0AC014E5F5F4FBE
:1010B0002417350748F04E0F5F1F50931B014093D4
:1010C0001A01819391939FCFF0E0E0E09CCFCF9302
:1010D000DF930097E9F0FC01329713821282A0910E
:1010E0001C01B0911D01ED0130E020E01097A1F44A
:1010F00020813181820F931F20911A0130911B01B1
:101100002817390709F061C0F0931B01E0931A0119
:10111000DF91CF910895EA01CE17DF07E8F54A8104
:101120005B819E0141155105B1F7E901FB83EA831B
:1011300049915991C40FD51FEC17FD0761F48081C7
:1011400091810296840F951FE9019983888382819A
:1011500093819B838A83F0E0E0E012968D919C91CD
:1011600013970097B9F52D913C911197CD010296F7
:10117000820F931F20911A0130911B012817390704
:1011800039F6309751F510921D0110921C01B09361
:101190001B01A0931A01BCCFD383C283408151812C
:1011A000840F951FC817D90761F44E5F5F4F888180
:1011B0009981480F591F518340838A819B81938372
:1011C00082832115310509F0B0CFF0931D01E09322
:1011D0001C019ECFFD01DC01C0CF13821282D7CF4C
:1011E000B0E0A0E0E5EFF8E052CE8C01009741F4CA
:1011F000CB01D1DE8C01C801CDB7DEB7E0E163CE13
:10120000FC01E60FF71F9C0122503109E217F3079A
:1012100008F499C0D901CD91DC911197C617D70771
:1012200090F0C530D10538F3CE01049786179707A3
:1012300010F3C61BD70B2297C193D1936D937C9368
:10124000CF0145DFD8CF5B01AC1ABD0A4C018C0E33
:101250009D1EA0911C01B0911D01512C412CF12C1F
:10126000E12C109731F580911A0190911B0188159E
:10127000990509F05CC04616570608F058C08091E1
:10128000620090916300009741F48DB79EB7409142
:10129000660050916700841B950BE817F90708F06A
:1012A00052C0F0931B01E0931A01F901718360832E
:1012B000A2CF8D919C91119712966C9012971396D4
:1012C0007C901397A815B90559F56C0142E0C40E3E
:1012D000D11CCA14DB0420F1AC014A195B09DA0104
:1012E0001296159780F06282738251834083D901F0
:1012F0006D937C93E114F10471F0D7011396FC9384
:10130000EE93129778CF22968C0F9D1FF90191834F
:101310008083F301EFCFF0931D01E0931C016BCFAD
:101320004816590608F42C017D01D3019ACFCB0150
:1013300032DE7C01009739F0AE01B80107D0C80158
:10134000C6DE870158CF10E000E055CFFB01DC017D
:1013500002C001900D9241505040D8F70895FB0112
:10136000DC0101900D920020E1F7089510E0C8E241
:10137000D0E003C0FE0109DE2196C932D107D1F7C2
:04138000F894FFCF0F
:10138400010100001E018000000000007A016A00D3
:101394000E027901D601ED0161014F4E004F464620
:0613A400000D0A003B00F1
:00000001FF
